S01100007A756D6F5F786265652E7372656345
S11300000C9456000C9473000C9473000C947300BD
S11300100C9473000C9473000C9473000C94EC0017
S11300200C9473000C9427010C9473000C947300CB
S11300300C9473000C9473000C9473000C94730070
S11300400C9473000C9473000C9473000C94730060
S11300500C9473000C9473000C9473000C94730050
S11300600C9473000C94C2000C9473000C947300F1
S11300700C9473000C9473000C9473000C94730030
S11300800C9473000C9473000C9473000C94730020
S11300900C9473000C9473000C9473000C94730010
S11300A00C9473000C9473000C94730011241FBE01
S11300B0CFEFDAE0DEBFCDBF11E0A0E0B1E0EEE8C3
S11300C0F5E002C005900D92A234B107D9F721E002
S11300D0A2E4B1E001C01D92AA34B207E1F70E9484
S11300E085010C94C5020C9400001092C80088EDA0
S11300F08093C90086E08093CA001092CD0087E601
S11301008093CC00789408959091C80095FFFCCF1B
S11301108093CE0008950F931F93CF938C01C0E07A
S113012003C00E948400CF5FF801EC0FF11D8081B1
S11301308111F7CFCF911F910F910895CF93DF9342
S1130140CDB7DEB728970FB6F894DEBF0FBECDBF8C
S11301504AE0BE016F5F7F4F0E949002CE0101967C
S11301600E948B0028960FB6F894DEBF0FBECDBF59
S1130170DF91CF9108958091C8008823E4F780919E
S1130180CE0008951F920F920FB60F9211242F9351
S11301903F934F935F936F937F938F939F93AF930B
S11301A0BF93EF93FF930E94BB0080930001809163
S11301B000010E941E02FF91EF91BF91AF919F91A8
S11301C08F917F916F915F914F913F912F910F90FC
S11301D00FBE0F901F9018951F920F920FB60F929B
S11301E011242F933F934F935F936F937F938F9338
S11301F09F93AF93BF93EF93FF93669B17C0809138
S113020046019091470101969093470180934601DE
S113021081E091E00E948B0080914601909147011A
S11302200E949E0085E191E00E948B00FF91EF9176
S1130230BF91AF919F918F917F916F915F914F91FA
S11302403F912F910F900FBE0F901F9018951F9202
S11302500F920FB60F9211242F933F934F935F93F6
S11302606F937F938F939F93AF93BF93EF93FF937A
S11302701C9B17C08091480190914901019690936D
S113028049018093480188E191E00E948B008091AC
S11302904801909149010E949E0085E191E00E94ED
S11302A08B00FF91EF91BF91AF919F918F917F91BF
S11302B06F915F914F913F912F910F900FBE0F90CF
S11302C01F901895F8948DB18F7B8DB980B38E7F74
S11302D080BBEAE6F0E080818F6D80838DB380641B
S11302E08DBB84B18F7E84B98DB18B7F8DB9E8E6E7
S11302F0F0E0808181608083EBE6F0E080818061C2
S1130300808381E08BBB789408950E9475000E94DD
S1130310D7010E9462018BE291E00E948B008091E0
S113032000010E94840085E191E00E948B0080918D
S11303304801909149019C01369527958091460189
S11303409091470196958795820F931F909345014D
S113035080934401809144019091450164EB74E0E1
S11303600E946802CB01880F991F680F791F660FDE
S1130370771F660F771F709343016093420187E3F1
S113038091E00E948B0080914201909143010E9470
S11303909E0085E191E00E948B002FEF83ED90E3B6
S11303A0215080409040E1F700C00000B4CF80EAC3
S11303B08093800081E18093810080E991E09093B3
S11303C08700809386001092890010928800109212
S11303D08B0010928A0084B1866684B9089520E661
S11303E025B9909389008093880090938B00809323
S11303F08A00089520E425B990938B0080938A00A5
S1130400089520E225B99093890080938800089587
S113041026E625B9909389008093880090938B00F9
S113042080938A00089520E625B9909389008093EB
S1130430880070938B0060938A000895853681F15B
S113044028F48136A1F08436D9F031C0833751F0D5
S1130450873719F0813759F51CC080E991E00E9473
S1130460EF01089580E991E00E940802089580E96F
S113047091E00E94010280E090E00E94FA01089558
S113048080E991E00E94FA0180E090E00E9401027C
S1130490089568EC70E080E991E00E9413020895E9
S11304A060E971E088EC90E00E941302089580E016
S11304B090E00E94EF0180E090E00E94080280E05A
S11304C090E00E94010280E090E00E94FA01089509
S11304D097FB072E16F4009407D077FD09D00E94ED
S11304E07C0207FC05D03EF4909581959F4F0895BA
S11304F0709561957F4F0895AA1BBB1B51E107C0FE
S1130500AA1FBB1FA617B70710F0A61BB70B881F9F
S1130510991F5A95A9F780959095BC01CD0108952E
S1130520BB274A3031F4992322F4BDE2909581959A
S11305309F4F0C949C02BB27FB015527AA27880FC9
S1130540991FAA1FA41710F0A41B83955051B9F743
S1130550A05DAA3308F0A95DA193009779F7B111C2
S1130560B1931192CB010C94B502DC01FC01672F0D
S113057071917723E1F7329704C07C916D93708376
S11105806291AE17BF07C8F30895F894FFCF39
S113058E207269676874456E636F6465725469633B
S113059E6B733A20000D0A006C656674456E636FCA
S11305AE6465725469636B733A20004469726563BF
S11305BE74696F6E3A200044697374616E63653AB0
S10505CE200007
S9030000FC
