:100000000C9456000C9473000C9473000C947300C1
:100010000C9473000C9473000C9473000C94E40023
:100020000C9473000C94FD000C9473000C947300FA
:100030000C9473000C9473000C9473000C94730074
:100040000C9473000C9473000C9473000C94730064
:100050000C9473000C9473000C9473000C94730054
:100060000C9473000C94BA000C9473000C947300FD
:100070000C9473000C9473000C9473000C94730034
:100080000C9473000C9473000C9473000C94730024
:100090000C9473000C9473000C9473000C94730014
:1000A0000C9473000C9473000C94730011241FBE05
:1000B000CFEFDAE0DEBFCDBF11E0A0E0B1E0E4E1D8
:1000C000F5E002C005900D92A833B107D9F721E001
:1000D000A8E3B1E001C01D92A034B207E1F70E948D
:1000E00034010C9488020C9400001092C80088E936
:1000F0008093C90086E08093CA001092CD0087E605
:100100008093CC0008959091C80095FFFCCF809318
:10011000CE0008950F931F93CF938C01C0E003C0CE
:100120000E948300CF5FF801EC0FF11D80818111E7
:10013000F7CFCF911F910F910895CF93DF93CDB754
:10014000DEB728970FB6F894DEBF0FBECDBF4AE0EA
:10015000BE016F5F7F4F0E945302CE0101960E9445
:100160008A0028960FB6F894DEBF0FBECDBFDF9190
:10017000CF9108951F920F920FB60F9211242F93D3
:100180003F934F935F936F937F938F939F93AF931F
:10019000BF93EF93FF938091CE00809300018091F5
:1001A00000010E94F501FF91EF91BF91AF919F91E6
:1001B0008F917F916F915F914F913F912F910F9010
:1001C0000FBE0F901F9018951F920F920FB60F92AF
:1001D00011248F939F93769B09C080913C0190914D
:1001E0003D01019690933D0180933C019F918F9139
:1001F0000F900FBE0F901F9018951F920F920FB681
:100200000F9211248F939F931C9B09C080913E01F4
:1002100090913F01019690933F0180933E019F9101
:100220008F910F900FBE0F901F9018958DB18F7BFF
:100230008DB980B38E7F80BB8FED80936A0080E4A0
:100240008DBB84B18F7E84B98DB18B7F8DB9E8E68B
:10025000F0E0808181608083EBE6F0E08081806166
:10026000808381E08BBB08950E9475000E94AE01DF
:100270000E941601789487B1816087B920913E0170
:1002800030913F0180913C0190913D01820F931F7D
:1002900090933B0180933A0180913A0190913B0108
:1002A00064EB74E00E943F02CB01880F991F680F36
:1002B000791F660F771F660F771F70933901609360
:1002C000380180913E0190913F01803D974010F0B0
:1002D00080E888B981E091E00E948A008091000165
:1002E0000E9483008DE091E00E948A0080E191E00D
:1002F0000E948A0080913E0190913F010E949D00E2
:100300008CE191E00E948A008FE191E00E948A00D6
:1003100080913C0190913D010E949D008CE191E013
:100320000E948A008CE291E00E948A00809138014C
:10033000909139010E949D008DE091E00E948A0019
:100340008DE091E00E948A008FEF93ED20E38150D1
:1003500090402040E1F700C0000090CF80EA8093F9
:10036000800081E18093810080E991E09093870093
:1003700080938600109289001092880010928B0062
:1003800010928A0084B1866684B9089520E625B962
:10039000909389008093880090938B0080938A00CB
:1003A000089520E425B990938B0080938A000895E6
:1003B00020E225B99093890080938800089526E66D
:1003C00025B9909389008093880090938B00809347
:1003D0008A00089520E625B99093890080938800CB
:1003E00070938B0060938A000895853681F128F41C
:1003F0008136A1F08436D9F031C0833751F0873788
:1004000019F0813759F51CC088EC90E00E94C601B4
:10041000089588EC90E00E94DF01089588EC90E058
:100420000E94D80180E090E00E94D101089588ECFC
:1004300090E00E94D10180E090E00E94D8010895F0
:1004400064E670E088EC90E00E94EA01089568ECB0
:1004500070E084E690E00E94EA01089580E090E078
:100460000E94C60180E090E00E94DF0180E090E001
:100470000E94D80180E090E00E94D1010895AA1B5B
:10048000BB1B51E107C0AA1FBB1FA617B70710F07F
:10049000A61BB70B881F991F5A95A9F780959095B1
:1004A000BC01CD010895BB274A3031F4992322F4D1
:1004B000BDE2909581959F4F0C945F02BB27FB0195
:1004C0005527AA27880F991FAA1FA41710F0A41B4D
:1004D00083955051B9F7A05DAA3308F0A95DA193A7
:1004E000009779F7B111B1931192CB010C94780276
:1004F000DC01FC01672F71917723E1F7329704C08B
:100500007C916D9370836291AE17BF07C8F3089515
:04051000F894FFCF8D
:1005140020446972656374696F6E3A20000D0A00A5
:100524007469636B734C6566743A20000A0D007439
:1005340069636B7352696768743A20004469737421
:08054400616E63653A200000BE
:00000001FF
