:100000000C9456000C9473000C9473000C947300C1
:100010000C9473000C9473000C9473000C94EC001B
:100020000C9473000C942F010C9473000C947300C7
:100030000C9473000C9473000C9473000C94730074
:100040000C9473000C9473000C9473000C94730064
:100050000C9473000C9473000C9473000C94730054
:100060000C9473000C94C2000C9473000C947300F5
:100070000C9473000C9473000C9473000C94730034
:100080000C9473000C9473000C9473000C94730024
:100090000C9473000C9473000C9473000C94730014
:1000A0000C9473000C9473000C94730011241FBE05
:1000B000CFEFDAE0DEBFCDBF11E0A0E0B1E0E8EEC7
:1000C000F5E002C005900D92AC31B107D9F721E0FF
:1000D000ACE1B1E001C01D92AC32B207E1F70E9481
:1000E000B2010C94F2020C9400001092C80088ED4A
:1000F0008093C90086E08093CA001092CD0087E605
:100100008093CC00789408959091C80095FFFCCF1F
:100110008093CE0008950F931F93CF938C01C0E07E
:1001200003C00E948400CF5FF801EC0FF11D8081B5
:100130008111F7CFCF911F910F910895CF93DF9346
:10014000CDB7DEB728970FB6F894DEBF0FBECDBF90
:100150004AE0BE016F5F7F4F0E94BD02CE01019653
:100160000E948B0028960FB6F894DEBF0FBECDBF5D
:10017000DF91CF9108958091C8008823E4F78091A2
:10018000CE0008951F920F920FB60F9211242F9355
:100190003F934F935F936F937F938F939F93AF930F
:1001A000BF93EF93FF930E94BB0080930001809167
:1001B00000010E944B02FF91EF91BF91AF919F917F
:1001C0008F917F916F915F914F913F912F910F9000
:1001D0000FBE0F901F9018951F920F920FB60F929F
:1001E00011242F933F934F935F936F937F938F933C
:1001F0009F9391B39170692F70E08EB180749827AE
:10020000892F90E020911C0130911D01282739276A
:1002100040911E0150911F0146275727241B350B83
:100220004091280150912901240F351F3093290155
:100230002093280190931F0180931E0170931D014C
:1002400060931C019F918F917F916F915F914F916E
:100250003F912F910F900FBE0F901F9018951F92F6
:100260000F920FB60F9211242F933F934F935F93EA
:100270006F937F938F939F939EB19470692F70E0DB
:1002800085B180719827892F90E0209120013091CD
:100290002101282739274091220150912301462727
:1002A0005727241B350B40912A0150912B01240F15
:1002B000351F30932B0120932A01909323018093C3
:1002C000220170932101609320019F918F917F9172
:1002D0006F915F914F913F912F910F900FBE0F90B3
:1002E0001F901895F8948DB18F7B8DB980B38E7F58
:1002F00080BBEAE6F0E080818F6D80838DB38064FF
:100300008DBB84B18F7E84B98DB18B7F8DB9E8E6CA
:10031000F0E0808181608083EBE6F0E080818061A5
:10032000808381E08BBB789485B1807190E090935D
:100330002301809322018EB1847090E0909321017B
:10034000809320018EB1807490E090931F01809380
:100350001E0181B3282F217030E030931D012093BE
:100360001C0108950E9475000E9404020E947201FF
:1003700081E091E00E948B00809100010E94840046
:100380008DE091E00E948B0080912A0190912B01D9
:100390009C01369527958091280190912901969589
:1003A0008795820F931F9093270180932601809158
:1003B00026019091270164EB74E00E949502CB0125
:1003C000880F991F680F791F660F771F660F771FB9
:1003D000709325016093240180E191E00E948B00DD
:1003E00080912401909125010E949E008DE091E072
:1003F0000E948B002FEF83ED90E3215080409040CE
:10040000E1F700C00000B4CF80EA8093800081E172
:100410008093810080E991E090938700809386002B
:10042000109289001092880010928B0010928A001E
:1004300084B1866684B9089520E625B99093890031
:100440008093880090938B0080938A00089520E425
:1004500025B990938B0080938A00089520E225B9F6
:100460009093890080938800089526E625B990939B
:1004700089008093880090938B0080938A00089570
:1004800020E625B9909389008093880070938B00B3
:1004900060938A000895853681F128F48136A1F0B1
:1004A0008436D9F031C0833751F0873719F081375E
:1004B00059F51CC080E991E00E941C02089580E972
:1004C00091E00E943502089580E991E00E942E0299
:1004D00080E090E00E942702089580E991E00E9468
:1004E000270280E090E00E942E02089568EC70E000
:1004F00080E991E00E944002089560E971E088EC93
:1005000090E00E944002089580E090E00E941C026A
:1005100080E090E00E94350280E090E00E942E0290
:1005200080E090E00E942702089597FB072E16F4C2
:10053000009407D077FD09D00E94A90207FC05D0DE
:100540003EF4909581959F4F0895709561957F4FEA
:100550000895AA1BBB1B51E107C0AA1FBB1FA6170A
:10056000B70710F0A61BB70B881F991F5A95A9F75C
:1005700080959095BC01CD010895BB274A3031F498
:10058000992322F4BDE2909581959F4F0C94C90266
:10059000BB27FB015527AA27880F991FAA1FA4175D
:1005A00010F0A41B83955051B9F7A05DAA3308F051
:1005B000A95DA193009779F7B111B1931192CB0185
:1005C0000C94E202DC01FC01672F71917723E1F7C3
:1005D000329704C07C916D9370836291AE17BF0710
:0805E000C8F30895F894FFCF61
:1005E80020446972656374696F6E3A20000D0A00D1
:0C05F80044697374616E63653A20000072
:00000001FF
