S01100007A756D6F5F786265652E7372656345
S11300000C9456000C9473000C9473000C947300BD
S11300100C9473000C9473000C9473000C94E4001F
S11300200C9473000C94FD000C9473000C947300F6
S11300300C9473000C9473000C9473000C94730070
S11300400C9473000C9473000C9473000C94730060
S11300500C9473000C9473000C9473000C94730050
S11300600C9473000C94BA000C9473000C947300F9
S11300700C9473000C9473000C9473000C94730030
S11300800C9473000C9473000C9473000C94730020
S11300900C9473000C9473000C9473000C94730010
S11300A00C9473000C9473000C94730011241FBE01
S11300B0CFEFDAE0DEBFCDBF11E0A0E0B1E0ECE4C9
S11300C0F8E002C005900D92A833B107D9F721E0FA
S11300D0A8E3B1E001C01D92A434B207E1F70E9485
S11300E037010C9424040C9400001092C80088E991
S11300F08093C90086E08093CA001092CD0087E601
S11301008093CC0008959091C80095FFFCCF809314
S1130110CE0008950F931F93CF938C01C0E003C0CA
S11301200E948300CF5FF801EC0FF11D80818111E3
S1130130F7CFCF911F910F910895CF93DF93CDB750
S1130140DEB728970FB6F894DEBF0FBECDBF4AE0E6
S1130150BE016F5F7F4F0E94EF03CE0101960E94A4
S11301608A0028960FB6F894DEBF0FBECDBFDF918C
S1130170CF9108951F920F920FB60F9211242F93CF
S11301803F934F935F936F937F938F939F93AF931B
S1130190BF93EF93FF938091CE00809300018091F1
S11301A000010E940202FF91EF91BF91AF919F91D4
S11301B08F917F916F915F914F913F912F910F900C
S11301C00FBE0F901F9018951F920F920FB60F92AB
S11301D011248F939F93769B09C080914001909145
S11301E04101019690934101809340019F918F9129
S11301F00F900FBE0F901F9018951F920F920FB67D
S11302000F9211248F939F931C9B09C080914201EC
S113021090914301019690934301809342019F91F1
S11302208F910F900FBE0F901F9018958DB18F7BFB
S11302308DB980B38E7F80BB8EB180648EB980E32C
S113024080936A0080E48DBB84B18F7E84B98DB1C4
S11302508B7F8DB9E8E6F0E0808181608083EBE6F6
S1130260F0E080818061808381E08BBB08950E94EF
S113027075000E94BB010E941601789460914201AE
S1130280709143018091400190914101680F791F61
S113029080E090E00E94F40260933C0170933D0181
S11302A080933E0190933F0160913C0170913D0128
S11302B080913E0190913F0124E13EE846E954E4F7
S11302C00E944C022FE039E044E451E40E9482038E
S11302D0609338017093390180933A0190933B0104
S11302E081E091E00E948A00809100010E948300D5
S11302F08DE091E00E948A0080E191E00E948A00F2
S113030080914201909143010E949D008CE191E013
S11303100E948A008FE191E00E948A00809140014E
S1130320909141010E949D008CE191E00E948A001D
S11303308CE291E00E948A00609138017091390149
S113034080913A0190913B010E94BE02CB010E9430
S11303509D008DE091E00E948A008DE091E00E9472
S11303608A002FEF83ED90E3215080409040E1F725
S113037000C0000083CF80EA8093800081E18093F5
S1130380810080E991E09093870080938600109229
S113039089001092880010928B0010928A0084B118
S11303A0866684B9089520E625B9909389008093E0
S11303B0880090938B0080938A00089520E425B9E7
S11303C090938B0080938A00089520E225B990933E
S11303D0890080938800089526E625B990938900C2
S11303E08093880090938B0080938A00089520E680
S11303F025B9909389008093880070938B00609353
S11304008A000895853681F128F48136A1F0843676
S1130410D9F031C0833751F0873719F0813759F556
S11304201CC084E690E00E94D301089584E690E025
S11304300E94EC01089584E690E00E94E50180E0CA
S113044090E00E94DE01089584E690E00E94DE01BF
S113045080E090E00E94E501089562E370E084E6A4
S113046090E00E94F701089564E670E082E390E072
S11304700E94F701089580E090E00E94D30180E09B
S113048090E00E94EC0180E090E00E94E50180E0B1
S113049090E00E94DE0108950E9460020C944803DB
S11304A00E94410358F00E943A0340F029F45F3F50
S11304B029F00C94310351110C947C030C943703F0
S11304C00E94590368F39923B1F3552391F3951BC3
S11304D0550BBB27AA2762177307840738F09F5F61
S11304E05F4F220F331F441FAA1FA9F335D00E2ECE
S11304F03AF0E0E832D091505040E695001CCAF73B
S11305002BD0FE2F29D0660F771F881FBB1F2617FD
S113051037074807AB07B0E809F0BB0B802DBF01D4
S1130520FF2793585F4F3AF09E3F510578F00C94A3
S113053031030C947C035F3FE4F3983ED4F3869537
S113054077956795B795F7959F5FC9F7880F911DC4
S11305509695879597F90895E1E0660F771F881FB0
S1130560BB1F621773078407BA0720F0621B730B63
S1130570840BBA0BEE1F88F7E09508950E94C5021C
S11305806894B1110C947C0308950E94610388F06F
S11305909F5798F0B92F9927B751B0F0E1F0660F43
S11305A0771F881F991F1AF0BA95C9F714C0B13084
S11305B091F00E947B03B1E008950C947B03672FB4
S11305C0782F8827B85F39F0B93FCCF386957795B3
S11305D06795B395D9F73EF490958095709561959C
S11305E07F4F8F4F9F4F0895E89409C097FB3EF4C7
S11305F090958095709561957F4F8F4F9F4F99236C
S1130600A9F0F92F96E9BB279395F69587957795E9
S11306106795B795F111F8CFFAF4BB0F11F460FFA9
S11306201BC06F5F7F4F8F4F9F4F16C0882311F001
S113063096E911C0772321F09EE8872F762F05C015
S1130640662371F096E8862F70E060E02AF09A95B0
S1130650660F771F881FDAF7880F9695879597F9A5
S1130660089597F99F6780E870E060E008959FEF30
S113067080EC089500240A94161617061806090635
S1130680089500240A941216130614060506089504
S1130690092E0394000C11F4882352F0BB0F40F48C
S11306A0BF2B11F460FF04C06F5F7F4F8F4F9F4FCC
S11306B0089557FD9058440F551F59F05F3F71F04E
S11306C04795880F97FB991F61F09F3F79F08795B5
S11306D00895121613061406551FF2CF4695F1DF3E
S11306E008C0161617061806991FF1CF86957105CE
S11306F0610508940895E894BB2766277727CB0102
S113070097F908950E9495030C9448030E943A03B4
S113071038F00E94410320F0952311F00C9431032A
S11307200C94370311240C947C030E94590370F336
S1130730959FC1F3950F50E0551F629FF001729F82
S1130740BB27F00DB11D639FAA27F00DB11DAA1F91
S1130750649F6627B00DA11D661F829F2227B00DDE
S1130760A11D621F739FB00DA11D621F839FA00D69
S1130770611D221F749F3327A00D611D231F849FB9
S1130780600D211D822F762F6A2F11249F57504010
S11307909AF0F1F088234AF0EE0FFF1FBB1F661F8B
S11307A0771F881F91505040A9F79E3F510580F054
S11307B00C9431030C947C035F3FE4F3983ED4F330
S11307C0869577956795B795F795E7959F5FC1F7F8
S11307D0FE2B880F911D9695879597F90895BB2751
S11307E04A3031F4992322F4BDE2909581959F4FCC
S11307F00C94FB03BB27FB015527AA27880F991FDD
S1130800AA1FA41710F0A41B83955051B9F7A05D3B
S1130810AA3308F0A95DA193009779F7B111B193B8
S11308201192CB010C941404DC01FC01672F71912B
S11308307723E1F7329704C07C916D9370836291C2
S10F0840AE17BF07C8F30895F894FFCF6B
S113084C20446972656374696F6E3A20000D0A0066
S113085C7469636B734C6566743A20000A0D0074FA
S113086C69636B7352696768743A200044697374E2
S10B087C616E63653A2000007F
S9030000FC
