S01100007A756D6F5F786265652E7372656345
S11300000C9456000C9473000C9473000C947300BD
S11300100C9473000C9473000C9473000C94730090
S11300200C9473000C9473000C9473000C94730080
S11300300C9473000C9473000C9473000C94730070
S11300400C9473000C9473000C9473000C94730060
S11300500C9473000C9473000C9473000C94730050
S11300600C9473000C94C2000C9473000C947300F1
S11300700C9473000C9473000C9473000C94730030
S11300800C9473000C9473000C9473000C94730020
S11300900C9473000C9473000C9473000C94730010
S11300A00C9473000C9473000C94730011241FBE01
S11300B0CFEFDAE0DEBFCDBF11E0A0E0B1E0E6EBC8
S11300C0F3E002C005900D92A232B107D9F721E006
S11300D0A2E2B1E001C01D92A332B207E1F70E948F
S11300E0EC000C94D9010C9400001092C80088E92B
S11300F08093C90086E08093CA001092CD0087E601
S11301008093CC00789408959091C80095FFFCCF1B
S11301108093CE0008950F931F93CF938C01C0E07A
S113012003C00E948400CF5FF801EC0FF11D8081B1
S11301308111F7CFCF911F910F910895CF93DF9342
S1130140CDB7DEB728970FB6F894DEBF0FBECDBF8C
S11301504AE0BE016F5F7F4F0E94A401CE01019669
S11301600E948B0028960FB6F894DEBF0FBECDBF59
S1130170DF91CF9108958091C8008823E4F780919E
S1130180CE0008951F920F920FB60F9211242F9351
S11301903F934F935F936F937F938F939F93AF930B
S11301A0BF93EF93FF930E94BB0080930001809163
S11301B000010E945A01FF91EF91BF91AF919F916D
S11301C08F917F916F915F914F913F912F910F90FC
S11301D00FBE0F901F9018950E9475000E94130186
S11301E081E091E00E948B008091220190E00E94C6
S11301F09E0083E191E00E948B0085E191E00E94E2
S11302008B00809100010E94840083E191E00E94B0
S11302108B002FEF83ED90E3215080409040E1F775
S113022000C00000DDCF80EA8093800081E18093EC
S1130230810080E991E0909387008093860010927A
S113024089001092880010928B0010928A0084B169
S1130250866684B9089520E625B990938900809331
S1130260880090938B0080938A00089520E425B938
S113027090938B0080938A00089520E225B990938F
S1130280890080938800089526E625B99093890013
S11302908093880090938B0080938A00089520E6D1
S11302A025B9909389008093880070938B006093A4
S11302B08A000895853681F128F48136A1F08436C8
S11302C0D9F031C0833751F0873719F0813759F5A8
S11302D01CC086E990E00E942B01089586E990E015
S11302E00E944401089586E990E00E943D0180E067
S11302F090E00E943601089586E990E00E9436015C
S113030080E090E00E943D01089562E370E086E998
S113031090E00E944F01089566E970E082E390E066
S11303200E944F01089580E090E00E942B0180E03C
S113033090E00E94440180E090E00E943D0180E052
S113034090E00E9436010895BB274A3031F4992386
S113035022F4BDE2909581959F4F0C94B001BB2788
S1130360FB015527AA27880F991FAA1FA41710F06D
S1130370A41B83955051B9F7A05DAA3308F0A95D79
S1130380A193009779F7B111B1931192CB010C9419
S1130390C901DC01FC01672F71917723E1F73297E2
S11303A004C07C916D9370836291AE17BF07C8F34C
S10903B00895F894FFCF4C
S11303B62053656E736F72646174612054656D7049
S11303C63A20000A00446972656374696F6E3A20C4
S10503D6000021
S9030000FC
