:100000000C9456000C946B000C946B000C946B00D9
:100010000C946B000C946B000C946B000C946B00B4
:100020000C946B000C946B000C946B000C946B00A4
:100030000C946B000C946B000C946B000C946B0094
:100040000C946B000C946B000C946B000C946B0084
:100050000C946B000C946B000C946B000C946B0074
:100060000C946B000C946B000C946B000C946B0064
:100070000C946B000C946B000C946B000C946B0054
:100080000C946B000C946B000C946B000C946B0044
:100090000C946B000C946B000C946B000C946B0034
:1000A0000C946B000C946B000C946B0011241FBE1D
:1000B000CFEFDAE0DEBFCDBF11E0A0E0B1E0E4E5D4
:1000C000F2E002C005900D92AA30B107D9F70E9464
:1000D00007010C9428010C9400001092C80088E1DC
:1000E0008093C90086E08093CA001092CD0087E615
:1000F0008093CC00089580EA8093800081E1809312
:10010000810080E991E090938700809386001092AF
:1001100089001092880010928B0010928A0084B19E
:10012000866684B908959091C80095FFFCCF8093AE
:10013000CE0008950F931F93CF938C01C0E003C0AE
:100140000E949300CF5FF801EC0FF11D80818111B7
:10015000F7CFCF911F910F9108958091C800882308
:10016000E4F78091CE00089520E625B990938900A8
:100170008093880090938B0080938A00089520E4F8
:1001800025B990938B0080938A00089520E225B9C9
:100190009093890080938800089526E625B990936E
:1001A00089008093880090938B0080938A00089543
:1001B0008436B9F018F4813679F018C0833739F0F5
:1001C0008737A1F486E990E00E94B400089586E99B
:1001D00090E00E94CD00089586E990E00E94C6005C
:1001E000089586E990E00E94BF00089580E090E0C5
:1001F0000E94B40080E090E00E94CD0080E090E09A
:100200000E94C60080E090E00E94BF0008950E9416
:100210006D000E947B0080E091E00E949A000E94A5
:10022000AD00C82F0E94930087E091E00E949A00E1
:100230008C2F0E94D8002FEF83EC99E02150804052
:100240009040E1F700C0000080E20E94D800E3CFB8
:04025000F894FFCF50
:0A025400696E7075743A200A00000C
:00000001FF
