:100000000C9434000C9449000C9449000C94490061
:100010000C9449000C9449000C9449000C9449003C
:100020000C9449000C9449000C9449000C9449002C
:100030000C9449000C9449000C9449000C9449001C
:100040000C9449000C9449000C9449000C9449000C
:100050000C9449000C9449000C9449000C944900FC
:100060000C9449000C94490011241FBECFEFD8E036
:10007000DEBFCDBF11E0A0E0B1E0EEEBF2E002C0E8
:1000800005900D92A231B107D9F70E9407010C9497
:100090005D010C9400001092C00088E08093C100C4
:1000A00086E08093C2001092C50087E68093C4006A
:1000B00008959091C00095FFFCCF8093C6000895ED
:1000C0000F931F93CF938C01C0E003C00E9459008F
:1000D000CF5FF801EC0FF11D80818111F7CFCF9137
:1000E0001F910F910895CF93DF93CDB7DEB7289777
:1000F0000FB6F894DEBF0FBECDBF4AE0BE016F5F02
:100100007F4F0E942801CE0101960E946000289630
:100110000FB6F894DEBF0FBECDBFDF91CF9108952B
:100120000E947300089588B1806388B988E4809341
:10013000B800ECEBF0E080818460808308958091CA
:10014000BC008823E4F7089584EA8093BC000E94F1
:100150009F00089584E98093BC008091BC0084FDD9
:10016000FCCF089584EC8093BC000E949F00809196
:10017000BB00089584E88093BC000E949F0080919A
:10018000BB0008958093BB0084E88093BC000E946C
:100190009F000895CF93C82F0E94A40080E30E947F
:1001A000C2008C2F0E94C2000E94AA00CF91089525
:1001B000CF93DF930E94A40081E30E94C2000E94BB
:1001C000B200D82F0E94BA00C82F0E94AA002D2F7B
:1001D0002F71D4FF10C0DF70C295CF708C2F90E0CC
:1001E0009C0140E1D49F200D311D112480E091E05D
:1001F000821B930B09C0C295CF708C2F90E030E129
:10020000239F800D911D1124DF91CF9108950E94AD
:100210004B000E94930080E091E00E94600088E023
:1002200091E00E94600087E00E94CA000E94D8000E
:100230000E94900085E091E00E9460002FEF89E627
:1002400098E1215080409040E1F700C00000E7CFE6
:10025000BB274A3031F4992322F4BDE29095819571
:100260009F4F0C943401BB27FB015527AA27880F09
:10027000991FAA1FA41710F0A41B83955051B9F71A
:10028000A05DAA3308F0A95DA193009779F7B11199
:10029000B1931192CB010C944D01DC01FC01672F4D
:1002A00071917723E1F7329704C07C916D9370834D
:0E02B0006291AE17BF07C8F30895F894FFCF10
:1002BE00626567696E0A0D00496B2062656E3A20B1
:0202CE0000002E
:00000001FF
