:100000000C9456000C946B000C946B000C946B00D9
:100010000C946B000C946B000C946B000C946B00B4
:100020000C946B000C946B000C946B000C946B00A4
:100030000C946B000C946B000C946B000C946B0094
:100040000C946B000C946B000C946B000C946B0084
:100050000C946B000C946B000C946B000C946B0074
:100060000C946B000C946B000C946B000C946B0064
:100070000C946B000C946B000C946B000C946B0054
:100080000C946B000C946B000C946B000C946B0044
:100090000C946B000C946B000C946B000C946B0034
:1000A0000C946B000C946B000C946B0011241FBE1D
:1000B000CFEFDAE0DEBFCDBF11E0A0E0B1E0E0E3DA
:1000C000F4E002C005900D92AA31B107D9F70E9461
:1000D000CF000C9416020C9400001F930E94A30101
:1000E00086ED0E94C7010E94BD01182F0E94AB013E
:1000F000812F1F9108951F930E94A30186ED0E94F6
:10010000C7010E94BD01182F0E94AB01812F1F91D2
:1001100008951F930E94A30186ED0E94C7010E94CB
:10012000BD01182F0E94AB01812F1F9108951F93CD
:100130000E94A30186ED0E94C7010E94BD01182FF5
:100140000E94AB01812F1F9108951F930E94A3016C
:1001500086ED0E94C7010E94BD01182F0E94AB01CD
:10016000812F1F9108951F930E94A30186ED0E9485
:10017000C7010E94BD01182F0E94AB01812F1F9162
:1001800008951F93182F0E94A30187ED0E94C701B5
:10019000812F0E94C7010E94AB011F910895AF9269
:1001A000BF92CF92DF92EF92FF920F931F93CF9364
:1001B000DF930E9438010E943F010E94920180E07B
:1001C00091E00E945C0180E9A82E81E0B82E88E0D1
:1001D00091E00E945C0188E20E94C1000E94B3008D
:1001E000082F89E20E94C1000E94A500D82ECC24CD
:1001F00010E0C601802B912B0E948F0185E191E0D8
:100200000E945C018AE20E94C1000E949700082FB0
:100210008BE20E94C1000E948900F82EEE2410E0BB
:10022000C701802B912B0E948F0185E191E00E94F4
:100230005C018CE20E94C1000E947B00082F8DE2CD
:100240000E94C1000E946D00D82FC0E010E0CE01D6
:10025000802B912B0E948F0187E191E00E945C012D
:1002600088E893E1F5013197F1F70197D9F7AFCF1E
:100270003F9A0895479A08954798089508951092CF
:10028000C80088E08093C90086E08093CA0010927D
:10029000CD0087E68093CC0008958091C80087FF49
:1002A000FCCF8091CE000895982F8091C80085FFE3
:1002B000FCCF9093CE000895AC0120E007C0809160
:1002C000C80085FFFCCFE093CE002F5FFA01E20F5C
:1002D000F11DE081EE2399F708950F931F93DF93AB
:1002E000CF93CDB7DEB728970FB6F894DEBF0FBE19
:1002F000CDBF8E010F5F1F4FB8014AE050E00E9452
:10030000D101C8010E945C0128960FB6F894DEBFA7
:100310000FBECDBFCF91DF911F910F9108950E9425
:100320006D0108958BB183608BB988E48093B80028
:10033000ECEBF0E080818460808308958091BC00C4
:1003400087FFFCCF089584EA8093BC008091BC00B5
:1003500087FFFCCF089584E98093BC008091BC00A6
:1003600084FDFCCF089584EC8093BC008091BC0098
:1003700087FFFCCF8091BB00089584E88093BC0088
:100380008091BC0087FFFCCF8091BB0008958093D3
:10039000BB0084E88093BC008091BC0087FFFCCF49
:1003A0000895FB019F01E8944230C4F04532B4F453
:1003B0004A3029F497FB1EF4909581959F4F642F46
:1003C00077270E940202805D8A330CF0895D819359
:1003D000CB010097A1F716F45DE251931082C90199
:1003E0000C94F201DC01FC01672F71917723E1F796
:1003F000329704C07C916D9370836291AE17BF07F2
:10040000C8F30895AA1BBB1B51E107C0AA1FBB1F5D
:10041000A617B70710F0A61BB70B881F991F5A9590
:10042000A9F780959095BC01CD010895F894FFCF70
:10043000626567696E0A0D00506F736974696520A3
:0A04400069733A200020000A0D0045
:00000001FF
