:100000000C9456000C946B000C946B000C946B00D9
:100010000C946B000C946B000C946B000C946B00B4
:100020000C946B000C946B000C946B000C946B00A4
:100030000C946B000C946B000C946B000C946B0094
:100040000C946B000C946B000C946B000C946B0084
:100050000C946B000C946B000C946B000C946B0074
:100060000C946B000C946B000C946B000C946B0064
:100070000C946B000C946B000C946B000C946B0054
:100080000C946B000C946B000C946B000C946B0044
:100090000C946B000C946B000C946B000C946B0034
:1000A0000C946B000C946B000C946B0011241FBE1D
:1000B000CFEFDAE0DEBFCDBF11E0A0E0B1E0E0E2DB
:1000C000F4E002C005900D92A831B107D9F70E9463
:1000D000CF000C940E020C9400001F930E949B0111
:1000E0008DEA0E94BF010E94AB01182F0E94A3015C
:1000F000812F1F9108951F930E949B018DEA0E94FA
:10010000BF010E94AB01182F0E94A301812F1F91F4
:1001100008951F930E949B018DEA0E94BF010E94D7
:10012000AB01182F0E94A301812F1F9108951F93E7
:100130000E949B018DEA0E94BF010E94AB01182F13
:100140000E94A301812F1F9108951F930E949B017C
:100150008DEA0E94BF010E94AB01182F0E94A301EB
:10016000812F1F9108951F930E949B018DEA0E9489
:10017000BF010E94AB01182F0E94A301812F1F9184
:1001800008951F93182F0E949B018CEA0E94BF01C3
:10019000812F0E94BF010E94A3011F910895AF9279
:1001A000BF92CF92DF92EF92FF920F931F93CF9364
:1001B000DF930E9430010E9437010E948A0180E093
:1001C00091E00E94540180E9A82E81E0B82E88E0D9
:1001D00091E00E94540188E20E94C1000E94B30095
:1001E000082F89E20E94C1000E94A500D82ECC24CD
:1001F00010E0C601802B912B0E9487018AE20E94A9
:10020000C1000E949700082F8BE20E94C1000E944B
:100210008900F82EEE2410E0C701802B912B0E945C
:1002200087018CE20E94C1000E947B00082F8DE2B2
:100230000E94C1000E946D00D82FC0E010E0CE01E6
:10024000802B912B0E94870185E191E00E9454014F
:1002500088E893E1F5013197F1F70197D9F7B7CF26
:100260003F9A0895479A08954798089508951092DF
:10027000C80088E08093C90086E08093CA0010928D
:10028000CD0087E68093CC0008958091C80087FF59
:10029000FCCF8091CE000895982F8091C80085FFF3
:1002A000FCCF9093CE000895AC0120E007C0809170
:1002B000C80085FFFCCFE093CE002F5FFA01E20F6C
:1002C000F11DE081EE2399F708950F931F93DF93BB
:1002D000CF93CDB7DEB728970FB6F894DEBF0FBE29
:1002E000CDBF8E010F5F1F4FB8014AE050E00E9462
:1002F000C901C8010E94540128960FB6F894DEBFC8
:100300000FBECDBFCF91DF911F910F9108950E9435
:10031000650108958BB183608BB988E48093B80040
:10032000ECEBF0E080818460808308958091BC00D4
:1003300087FFFCCF089584EA8093BC008091BC00C5
:1003400087FFFCCF089584E98093BC008091BC00B6
:1003500084FDFCCF089584EC8093BC008091BC00A8
:1003600087FFFCCF8091BB00089584E88093BC0098
:100370008091BC0087FFFCCF8091BB0008958093E3
:10038000BB0084E88093BC008091BC0087FFFCCF59
:100390000895FB019F01E8944230C4F04532B4F463
:1003A0004A3029F497FB1EF4909581959F4F642F56
:1003B00077270E94FA01805D8A330CF0895D819372
:1003C000CB010097A1F716F45DE251931082C901A9
:1003D0000C94EA01DC01FC01672F71917723E1F7AE
:1003E000329704C07C916D9370836291AE17BF0702
:1003F000C8F30895AA1BBB1B51E107C0AA1FBB1F6E
:10040000A617B70710F0A61BB70B881F991F5A95A0
:10041000A9F780959095BC01CD010895F894FFCF80
:10042000626567696E0A0D00506F736974696520B3
:0804300069733A20000A0D0077
:00000001FF
