:100000000C9456000C9473000C9473000C947300C1
:100010000C9473000C9473000C9473000C94730094
:100020000C9473000C9473000C9473000C94730084
:100030000C9473000C9473000C9473000C94730074
:100040000C9473000C9473000C9473000C94730064
:100050000C9473000C9473000C9473000C94730054
:100060000C9473000C9473000C9473000C94730044
:100070000C9473000C9473000C9473000C94730034
:100080000C9473000C9473000C9473000C94730024
:100090000C9473000C9473000C9473000C94730014
:1000A0000C9473000C9473000C94730011241FBE05
:1000B000CFEFDAE0DEBFCDBF11E0A0E0B1E0EAEFC4
:1000C000F5E002C005900D92AC32B107D9F711E00E
:1000D000ACE2B1E001C01D92A233B107E1F70E948A
:1000E00058010C94FB020C9400000E9475028BE3F3
:1000F0000E9499020E948F0208950E9475028BE36C
:100100000E9499020E948F0208950E9475028BE35B
:100110000E9499020E948F0208950E9475028BE34B
:100120000E9499020E948F0208950E9475028BE33B
:100130000E9499020E948F0208951F930E947502E7
:100140008BE30E9499020E948F02182F0E947D0269
:10015000812F1F9108951F93182F0E9475028AE323
:100160000E949902812F0E9499020E947D021F9194
:1001700008952F923F924F925F926F927F928F924B
:100180009F92AF92BF92CF92DF92EF92FF920F9326
:100190001F93DF93CF9300D00F92CDB7DEB7AA2481
:1001A000BB248824992466247724CC24DD2488E089
:1001B0000E94AB000E949500898389E00E94AB00F9
:1001C0000E948D00382E8AE00E94AB000E948500BC
:1001D000282E8BE00E94AB000E947D00582E8CE000
:1001E0000E94AB000E947500482E8DE00E94AB007B
:1001F0000E949D00282F80E29EE4E0E9F1E0319723
:10020000F1F70197D1F7F32CEE243981832F90E099
:100210008E299F29A80EB91E152D00E0822D90E091
:10022000802B912B880E991E2B831A82842D90E0AF
:10023000EA81FB818E2B9F2B680E791E0894C11CCE
:10024000D11CF0E0CF16F4E0DF0609F0B0CFC50115
:1002500060E074E00E94A30270932D0160932C0172
:10026000C40160E074E00E94A302709331016093C6
:100270003001C30160E074E00E94A30270932F017B
:1002800060932E010F900F900F90CF91DF911F91EF
:100290000F91FF90EF90DF90CF90BF90AF909F9025
:1002A0008F907F906F905F904F903F902F90089528
:1002B000AF92BF92CF92DF92EF92FF920F931F9374
:1002C000CF93DF930E9411020E9464020E94B90042
:1002D0000E9475028AE30E94990284E20E949902B8
:1002E00084E60E9499020E947D020E9475028AE3C0
:1002F0000E94990285E20E94990280E20E9499027E
:100300000E947D020E9475028AE30E94990286E2A1
:100310000E94990280E00E9499020E947D0280E082
:1003200091E00E942E0280E9A82E81E0B82E88E09C
:1003300091E00E942E028DE091E00E942E0288E062
:100340000E94AB000E949500082F89E00E94AB003C
:100350000E948D00D82ECC2410E00C291D298091FC
:100360002C0190912D01081B190B8BE191E00E944B
:100370002E02C8010E9461028FE191E00E942E02CC
:100380008AE00E94AB000E948500082F8BE00E944B
:10039000AB000E947D00F82EEE2410E00E291F29EC
:1003A0008091300190913101081B190B81E291E09D
:1003B0000E942E02C8010E9461028FE191E00E941A
:1003C0002E028CE00E94AB000E947500082F8DE089
:1003D0000E94AB000E949D00D82FC0E010E00C2BC3
:1003E0001D2B80912E0190912F01081B190B85E286
:1003F00091E00E942E02C8010E94610289E291E010
:100400000E942E0288E893E1F5013197F1F70197F8
:10041000D9F78DCF3F9A0895479A08954798089540
:1004200008951092C80088E08093C90086E0809308
:10043000CA001092CD0087E68093CC000895809189
:10044000C80087FFFCCF8091CE000895982F80913F
:10045000C80085FFFCCF9093CE000895AC0120E04A
:1004600007C08091C80085FFFCCFE093CE002F5FCE
:10047000FA01E20FF11DE081EE2399F708950F9341
:100480001F93DF93CF93CDB7DEB728970FB6F894BD
:10049000DEBF0FBECDBF8E010F5F1F4FB8014AE018
:1004A00050E00E94CA02C8010E942E0228960FB690
:1004B000F894DEBF0FBECDBFCF91DF911F910F919A
:1004C00008950E943F0208958BB183608BB988E440
:1004D0008093B800ECEBF0E0808184608083089525
:1004E0008091BC0087FFFCCF089584EA8093BC0014
:1004F0008091BC0087FFFCCF089584E98093BC0005
:100500008091BC0084FDFCCF089584EC8093BC00F6
:100510008091BC0087FFFCCF8091BB00089584E8E8
:100520008093BC008091BC0087FFFCCF8091BB0012
:1005300008958093BB0084E88093BC008091BC0048
:1005400087FFFCCF089597FB092E07260AD077FD79
:1005500004D00CD006D000201AF4709561957F4F1E
:100560000895F6F7909581959F4F0895AA1BBB1BA0
:1005700051E107C0AA1FBB1FA617B70710F0A61BA3
:10058000B70B881F991F5A95A9F780959095BC01C4
:10059000CD010895FB019F01E8944230C4F045323B
:1005A000B4F44A3029F497FB1EF4909581959F4F3F
:1005B000642F77270E94B602805D8A330CF0895D34
:1005C0008193CB010097A1F716F45DE2519310825D
:1005D000C9010C94EB02DC01FC01672F71917723B8
:1005E000E1F7329704C07C916D9370836291AE17EE
:0A05F000BF07C8F30895F894FFCF89
:1005FA00626567696E0A0D00546573740052696317
:10060A006874696E672069733A2000583A2000209E
:0C061A0000593A20005A3A20000A0D0056
:00000001FF
