:100000000C9456000C9473000C9473000C947300C1
:100010000C9473000C9473000C9473000C94730094
:100020000C9473000C9473000C9473000C94730084
:100030000C9473000C9473000C9473000C94730074
:100040000C9473000C9473000C9473000C94730064
:100050000C9473000C9473000C9473000C94730054
:100060000C9473000C9473000C9473000C94730044
:100070000C9473000C9473000C9473000C94730034
:100080000C9473000C9473000C9473000C94730024
:100090000C9473000C9473000C9473000C94730014
:1000A0000C9473000C9473000C94730011241FBE05
:1000B000CFEFDAE0DEBFCDBF11E0A0E0B1E0E6E4D3
:1000C000F6E002C005900D92AC32B107D9F711E00D
:1000D000ACE2B1E001C01D92A233B107E1F70E948A
:1000E0008F010C9421030C9400000E94AE028BE35C
:1000F0000E94D2020E94C80208950E94AE028BE3C1
:100100000E94D2020E94C80208950E94AE028BE3B0
:100110000E94D2020E94C80208950E94AE028BE3A0
:100120000E94D2020E94C80208950E94AE028BE390
:100130000E94D2020E94C80208951F930E94AE023C
:100140008BE30E94D2020E94C802182F0E94B602BE
:10015000812F1F9108951F93182F0E94AE028AE3EA
:100160000E94D202812F0E94D2020E94B6021F91E9
:1001700008952F923F924F925F926F927F928F924B
:100180009F92AF92BF92CF92DF92EF92FF920F9326
:100190001F93DF93CF93CDB7DEB72E970FB6F894AA
:1001A000DEBF0FBECDBF1B861C861D861E861F822E
:1001B000188619861A861B821C821D821E821A824C
:1001C000198288E00E94AB000E949500682E89E0A9
:1001D0000E94AB000E948D00482E8AE00E94AB0076
:1001E0000E948500A82E8BE00E94AB000E947D003B
:1001F000582E8CE00E94AB000E947500E82E8DE026
:100200000E94AB000E949D00E0E4FFE13197F1F70E
:10021000342C2224772462287328882499242B855F
:100220003C854D855E85260D371D481D591D2B8744
:100230003C874D875E874424BB24A428B528CC2462
:10024000DD242F81388549855A852A0D3B1D4C1D9B
:100250005D1D2F83388749875A87D82ECC24FF24E9
:10026000EC28FD2800E010E08B819C81AD81BE81EF
:100270008E0D9F1DA01FB11F8B839C83AD83BE83FA
:10028000A981BA811196BA83A983A050B44009F01C
:1002900098CF2B853C854D855E856AE055954795C1
:1002A000379527956A95D1F730932D0120932C012E
:1002B0008F819885A985BA852AE0B595A7959795E8
:1002C00087952A95D1F790932F0180932E012B814A
:1002D0003C814D815E818AE05595479537952795FC
:1002E0008A95D1F730933101209330012E960FB6C5
:1002F000F894DEBF0FBECDBFCF91DF911F910F915C
:10030000FF90EF90DF90CF90BF90AF909F908F9035
:100310007F906F905F904F903F902F9008958F92B5
:100320009F92AF92BF92CF92DF92EF92FF920F9384
:100330001F93CF93DF930E944A020E949D020E9466
:10034000AE028AE30E94D20284E20E94D20284E6D4
:100350000E94D2020E94B6020E94AE028AE30E946C
:10036000D20285E20E94D20280E20E94D2020E9462
:10037000B6020E94AE028AE30E94D20286E20E9486
:10038000D20280E00E94D2020E94B6020E94B9000E
:1003900080E091E00E94670270E9872E71E0972E5D
:1003A00088E091E00E9467028DE091E00E94670280
:1003B00088E00E94AB000E949500082F89E00E940F
:1003C000AB000E948D00B82EAA2410E00A291B2938
:1003D000E0902C01F0902D018BE191E00E946702EA
:1003E000C8018E199F090E949A028FE191E00E9434
:1003F00067028AE00E94AB000E948500082F8BE014
:100400000E94AB000E947D00D82ECC2410E00C2965
:100410001D29E0902E01F0902F0181E291E00E94D1
:100420006702C8018E199F090E949A028FE191E02C
:100430000E9467028CE00E94AB000E947500082FAA
:100440008DE00E94AB000E949D00D82FC0E010E01C
:100450000C2B1D2BE0903001F090310185E291E0F2
:100460000E946702C8018E199F090E949A0289E2C0
:1004700091E00E94670288E893E1F4013197F1F777
:100480000197D9F78DCF3F9A0895479A08954798D5
:10049000089508951092C80088E08093C90086E00E
:1004A0008093CA001092CD0087E68093CC00089517
:1004B0008091C80087FFFCCF8091CE000895982FCF
:1004C0008091C80085FFFCCF9093CE000895AC01C9
:1004D00020E007C08091C80085FFFCCFE093CE00EC
:1004E0002F5FFA01E20FF11DE081EE2399F70895E5
:1004F0000F931F93DF93CF93CDB7DEB728970FB637
:10050000F894DEBF0FBECDBF8E010F5F1F4FB80145
:100510004AE050E00E94DC02C8010E94670228966F
:100520000FB6F894DEBF0FBECDBFCF91DF911F9104
:100530000F9108950E94780208958BB183608BB962
:1005400088E48093B800ECEBF0E0808184608083E5
:1005500008958091BC0087FFFCCF089584EA8093C2
:10056000BC008091BC0087FFFCCF089584E9809394
:10057000BC008091BC0084FDFCCF089584EC809386
:10058000BC008091BC0087FFFCCF8091BB00089528
:1005900084E88093BC008091BC0087FFFCCF8091F1
:1005A000BB0008958093BB0084E88093BC008091D9
:1005B000BC0087FFFCCF0895FB019F01E894423007
:1005C000C4F04532B4F44A3029F497FB1EF49095F8
:1005D00081959F4F642F77270E940D03805D8A339A
:1005E0000CF0895D8193CB010097A1F716F45DE2D1
:1005F00051931082C9010C94FD02DC01FC01672FAC
:1006000071917723E1F7329704C07C916D937083E9
:100610006291AE17BF07C8F30895AA1BBB1B51E137
:1006200007C0AA1FBB1FA617B70710F0A61BB70B62
:10063000881F991F5A95A9F780959095BC01CD0107
:060640000895F894FFCFBD
:10064600626567696E0A0D005465737400526963CA
:100656006874696E672069733A2000583A20002052
:0C06660000593A20005A3A20000A0D000A
:00000001FF
