:100000000C9456000C946B000C946B000C946B00D9
:100010000C946B000C946B000C946B000C946B00B4
:100020000C946B000C946B000C946B000C946B00A4
:100030000C946B000C946B000C946B000C946B0094
:100040000C946B000C946B000C946B000C946B0084
:100050000C946B000C946B000C946B000C946B0074
:100060000C946B000C946B000C946B000C946B0064
:100070000C946B000C946B000C946B000C946B0054
:100080000C946B000C946B000C946B000C946B0044
:100090000C946B000C946B000C946B000C946B0034
:1000A0000C946B000C946B000C946B0011241FBE1D
:1000B000CFEFDAE0DEBFCDBF11E0A0E0B1E0EEE5CA
:1000C000F4E002C005900D92A832B107D9F70E9462
:1000D000B1000C942D020C9400000E94BA018BE335
:1000E0000E94DE010E94D40108950E94BA018BE3B0
:1000F0000E94DE010E94D40108950E94BA018BE3A0
:100100000E94DE010E94D40108950E94BA018BE38F
:100110000E94DE010E94D40108950E94BA018BE37F
:100120000E94DE010E94D40108951F930E94BA012B
:100130008BE30E94DE010E94D401182F0E94C201AD
:10014000812F1F9108951F93182F0E94BA018AE3EF
:100150000E94DE01812F0E94DE010E94C2011F91D8
:1001600008958F929F92AF92BF92CF92DF92FF92AB
:100170000F931F93CF93DF930E9456010E94A90112
:100180000E94BA018AE30E94DE0184E20E94DE013D
:1001900084E60E94DE010E94C2010E94BA018AE345
:1001A0000E94DE0185E20E94DE0180E20E94DE0103
:1001B0000E94C2010E94BA018AE30E94DE0186E227
:1001C0000E94DE0180E00E94DE010E94C20180E008
:1001D00091E00E94730180E9882E81E0982E88E0EA
:1001E00091E00E94730188E00E94A3000E948D00AC
:1001F000082F89E00E94A3000E948500F82E86E166
:1002000091E00E947301BF2CAA2410E0C501802B4D
:10021000912B0E94A6018AE191E00E9473018AE07D
:100220000E94A3000E947D00082F8BE00E94A30083
:100230000E947500F82E8CE191E00E947301DF2C82
:10024000CC2410E0C601802B912B0E94A6018AE1EC
:1002500091E00E9473018CE00E94A3000E946D0057
:10026000082F8DE00E94A3000E949500F82E80E2E6
:1002700091E00E947301DF2DC0E010E0CE01802BE1
:10028000912B0E94A60184E291E00E94730188E80C
:1002900093E1F4013197F1F70197D9F7A0CF3F9A95
:1002A0000895479A08954798089508951092C800B0
:1002B00088E08093C90086E08093CA001092CD0048
:1002C00087E68093CC0008958091C80087FFFCCF1B
:1002D0008091CE000895982F8091C80085FFFCCFB3
:1002E0009093CE000895AC0120E007C08091C80033
:1002F00085FFFCCFE093CE002F5FFA01E20FF11DE6
:10030000E081EE2399F708950F931F93DF93CF9326
:10031000CDB7DEB728970FB6F894DEBF0FBECDBFBE
:100320008E010F5F1F4FB8014AE050E00E94E801C4
:10033000C8010E94730128960FB6F894DEBF0FBE65
:10034000CDBFCF91DF911F910F9108950E9484013D
:1003500008958BB183608BB988E48093B800ECEB8F
:10036000F0E080818460808308958091BC0087FFE5
:10037000FCCF089584EA8093BC008091BC0087FF85
:10038000FCCF089584E98093BC008091BC0084FD7B
:10039000FCCF089584EC8093BC008091BC0087FF63
:1003A000FCCF8091BB00089584E88093BC008091CD
:1003B000BC0087FFFCCF8091BB0008958093BB00F9
:1003C00084E88093BC008091BC0087FFFCCF089537
:1003D000FB019F01E8944230C4F04532B4F44A3046
:1003E00029F497FB1EF4909581959F4F642F7727F2
:1003F0000E941902805D8A330CF0895D8193CB01E4
:100400000097A1F716F45DE251931082C9010C9494
:100410000902DC01FC01672F71917723E1F7329724
:1004200004C07C916D9370836291AE17BF07C8F3CF
:100430000895AA1BBB1B51E107C0AA1FBB1FA6172B
:10044000B70710F0A61BB70B881F991F5A95A9F77D
:0E04500080959095BC01CD010895F894FFCFE2
:10045E00626567696E0A0D005269636874696E673A
:10046E002069733A2000583A20002000593A2000A3
:08047E005A3A20000A0D0000AB
:00000001FF
