:100000000C9456000C9473000C9473000C947300C1
:100010000C9473000C9473000C9473000C94730094
:100020000C9473000C9473000C9473000C94730084
:100030000C9473000C9473000C9473000C94730074
:100040000C9473000C9473000C9473000C94730064
:100050000C9473000C9473000C9473000C94730054
:100060000C9473000C9473000C9473000C94730044
:100070000C9473000C9473000C9473000C94730034
:100080000C9473000C9473000C9473000C94730024
:100090000C9473000C9473000C9473000C94730014
:1000A0000C9473000C9473000C94730011241FBE05
:1000B000CFEFDAE0DEBFCDBF11E0A0E0B1E0EEE3CC
:1000C000F6E002C005900D92A832B107D9F711E011
:1000D000A8E2B1E001C01D92AE32B107E1F70E9483
:1000E0008F010C941D030C9400000E94AA028BE364
:1000F0000E94CE020E94C40208950E94AA028BE3CD
:100100000E94CE020E94C40208950E94AA028BE3BC
:100110000E94CE020E94C40208950E94AA028BE3AC
:100120000E94CE020E94C40208950E94AA028BE39C
:100130000E94CE020E94C40208951F930E94AA0248
:100140008BE30E94CE020E94C402182F0E94B202CA
:10015000812F1F9108951F93182F0E94AA028AE3EE
:100160000E94CE02812F0E94CE020E94B2021F91F5
:1001700008952F923F924F925F926F927F928F924B
:100180009F92AF92BF92CF92DF92EF92FF920F9326
:100190001F93DF93CF93CDB7DEB72E970FB6F894AA
:1001A000DEBF0FBECDBF1B861C861D861E861F822E
:1001B000188619861A861B821C821D821E821A824C
:1001C000198288E00E94AB000E949500682E89E0A9
:1001D0000E94AB000E948D00482E8AE00E94AB0076
:1001E0000E948500A82E8BE00E94AB000E947D003B
:1001F000582E8CE00E94AB000E947500E82E8DE026
:100200000E94AB000E949D00E0E4FFE13197F1F70E
:10021000342C2224772462287328882499242B855F
:100220003C854D855E85260D371D481D591D2B8744
:100230003C874D875E874424BB24A428B528CC2462
:10024000DD242F81388549855A852A0D3B1D4C1D9B
:100250005D1D2F83388749875A87D82ECC24FF24E9
:10026000EC28FD2800E010E08B819C81AD81BE81EF
:100270008E0D9F1DA01FB11F8B839C83AD83BE83FA
:10028000A981BA811196BA83A983A050B44009F01C
:1002900098CF2B853C854D855E856AE055954795C1
:1002A000379527956A95D1F7309329012093280136
:1002B0008F819885A985BA852AE0B595A7959795E8
:1002C00087952A95D1F790932B0180932A012B8152
:1002D0003C814D815E818AE05595479537952795FC
:1002E0008A95D1F730932D0120932C012E960FB6CD
:1002F000F894DEBF0FBECDBFCF91DF911F910F915C
:10030000FF90EF90DF90CF90BF90AF909F908F9035
:100310007F906F905F904F903F902F9008958F92B5
:100320009F92AF92BF92CF92DF92EF92FF920F9384
:100330001F93CF93DF930E9446020E9499020E946E
:10034000AA028AE30E94CE0284E20E94CE0284E6E0
:100350000E94CE020E94B2020E94AA028AE30E9478
:10036000CE0285E20E94CE0280E20E94CE020E946E
:10037000B2020E94AA028AE30E94CE0286E20E9492
:10038000CE0280E00E94CE020E94B2020E94B9001A
:1003900080E091E00E94630270E9872E71E0972E61
:1003A00088E091E00E94630288E00E94AB000E9416
:1003B0009500082F89E00E94AB000E948D00B82EA6
:1003C000AA2410E00A291B29E0902801F0902901B5
:1003D00086E191E00E946302C8018E199F090E9484
:1003E00096028AE191E00E9463028AE00E94AB00DB
:1003F0000E948500082F8BE00E94AB000E947D00C8
:10040000D82ECC2410E00C291D29E0902A01F09070
:100410002B018CE191E00E946302C8018E199F09B3
:100420000E9496028AE191E00E9463028CE00E94A1
:10043000AB000E947500082F8DE00E94AB000E9467
:100440009D00D82FC0E010E00C2B1D2BE0902C015C
:10045000F0902D0180E291E00E946302C8018E19A4
:100460009F090E94960284E291E00E94630288E85C
:1004700093E1F4013197F1F70197D9F791CF3F9AC2
:100480000895479A08954798089508951092C800CE
:1004900088E08093C90086E08093CA001092CD0066
:1004A00087E68093CC0008958091C80087FFFCCF39
:1004B0008091CE000895982F8091C80085FFFCCFD1
:1004C0009093CE000895AC0120E007C08091C80051
:1004D00085FFFCCFE093CE002F5FFA01E20FF11D04
:1004E000E081EE2399F708950F931F93DF93CF9345
:1004F000CDB7DEB728970FB6F894DEBF0FBECDBFDD
:100500008E010F5F1F4FB8014AE050E00E94D802F1
:10051000C8010E94630228960FB6F894DEBF0FBE92
:10052000CDBFCF91DF911F910F9108950E9474026A
:1005300008958BB183608BB988E48093B800ECEBAD
:10054000F0E080818460808308958091BC0087FF03
:10055000FCCF089584EA8093BC008091BC0087FFA3
:10056000FCCF089584E98093BC008091BC0084FD99
:10057000FCCF089584EC8093BC008091BC0087FF81
:10058000FCCF8091BB00089584E88093BC008091EB
:10059000BC0087FFFCCF8091BB0008958093BB0017
:1005A00084E88093BC008091BC0087FFFCCF089555
:1005B000FB019F01E8944230C4F04532B4F44A3064
:1005C00029F497FB1EF4909581959F4F642F772710
:1005D0000E940903805D8A330CF0895D8193CB0111
:1005E0000097A1F716F45DE251931082C9010C94B3
:1005F000F902DC01FC01672F71917723E1F7329753
:1006000004C07C916D9370836291AE17BF07C8F3ED
:100610000895AA1BBB1B51E107C0AA1FBB1FA61749
:10062000B70710F0A61BB70B881F991F5A95A9F79B
:0E06300080959095BC01CD010895F894FFCF00
:10063E00626567696E0A0D005269636874696E6758
:10064E002069733A2000583A20002000593A2000C1
:08065E005A3A20000A0D0000C9
:00000001FF
