S01100007A756D6F5F786265652E7372656345
S11300000C9470000C948D000C948D000C948D0055
S11300100C948D000C948D000C948D000C94AB0208
S11300200C948D000C94C4020C948D000C948D00DF
S11300300C948D000C948D000C948D000C948D0008
S11300400C948D000C948D000C948D000C948D00F8
S11300500C948D000C948D000C948D000C948D00E8
S11300600C948D000C9481020C948D000C948D00E2
S11300700C948D000C948D000C948D000C948D00C8
S11300800C948D000C948D000C948D000C948D00B8
S11300900C948D000C948D000C948D000C948D00A8
S11300A00C948D000C948D000C948D008304E10459
S11300B0D1049004AF04E104E104E104E104E104A7
S11300C0E104E104E104E104E104E1049D04E10448
S11300D07C04E104E104E1047504E104E104BF04E7
S11300E011241FBECFEFDAE0DEBFCDBF11E0A0E0E8
S11300F0B1E0E4EBFDE002C005900D92AA35B10732
S1130100D9F721E0AAE5B1E001C01D92A637B207F4
S1130110E1F70E94CD030C94D8060C9400008DB135
S11301208F7B8DB980B38E7F80BB8EB180648EB996
S113013080E380936A0080E48DBB84B18F7E84B9B0
S11301408DB18B7F8DB9E8E6F0E08081816080839A
S1130150EBE6F0E080818061808381E08BBB0895D1
S113016088B1806888B9089588B18F7788B908956F
S11301708BB183608BB988E48093B800ECEBF0E03A
S113018080818460808308958091BC008823E4F793
S1130190089584EA8093BC000E94C400089584E911
S11301A08093BC008091BC0084FDFCCF089584E85A
S11301B08093BC000E94C4008091BB00089580938A
S11301C0BB0084E88093BC000E94C4000895CF93D0
S11301D0C82F0E94C9008AE30E94DF008C2F0E946E
S11301E0DF000E94CF00CF910895CF930E94C900F1
S11301F087ED0E94DF000E94D700C82F0E94CF0025
S11302008C2FCF910895CF930E94C90087ED0E944F
S1130210DF000E94D700C82F0E94CF008C2FCF91FF
S11302200895CF930E94C90087ED0E94DF000E94C9
S1130230D700C82F0E94CF008C2FCF910895CF9361
S11302400E94C90087ED0E94DF000E94D700C82FDA
S11302500E94CF008C2FCF910895CF930E94C900A4
S113026087ED0E94DF000E94D700C82F0E94CF00B4
S11302708C2FCF910895CF930E94C90087ED0E94DF
S1130280DF000E94D700C82F0E94CF008C2FCF918F
S113029008952F923F924F925F926F927F928F9226
S11302A09F92AF92BF92CF92DF92EF92FF920F9301
S11302B01F93CF93DF9300D01F92CDB7DEB7212CCD
S11302C0312CC12CD12C7601812C912C5401412C40
S11302D0512C32014AC088E00E94E7000E94F500D8
S11302E0182F89E00E94E7000E940301282F30E0C4
S11302F0922F8827812B9B838A838AE00E94E700C0
S11303000E941101182F8BE00E94E7000E941F0138
S113031090E0982F8827FC01E12B8F018CE00E944C
S1130320E7000E942D0189838DE00E94E7000E946E
S11303303B0190E0982F8827F9818F2BEFE3FFE1B1
S11303403197F1F700C000002A813B81420E531E11
S1130350611C711C800E911EA11CB11CC80ED91EFB
S1130360E11CF11C3FEF231A330A211484E0380600
S11303700CF4B1CFD301C201772024F481509C4FF7
S1130380AF4FBF4F072E7AE0B595A7959795879500
S11303907A95D1F7702D90935F0180935E01D5011A
S11303A0C401BB2024F481509C4FAF4FBF4F072E94
S11303B07AE0B595A795979587957A95D1F7702D9D
S11303C090935D0180935C01D701C601FF2024F462
S11303D081509C4FAF4FBF4F072E7AE0B595A7953C
S11303E0979587957A95D1F7702D90935B018093BB
S11303F05A010F900F900F90DF91CF911F910F91A1
S1130400FF90EF90DF90CF90BF90AF909F908F9030
S11304107F906F905F904F903F902F9008950E942F
S1130420C9008AE30E94DF0084E20E94DF0084E6C0
S11304300E94DF000E94CF000E94C9008AE30E944C
S1130440DF0085E20E94DF0080E20E94DF000E945C
S1130450CF000E94C9008AE30E94DF0086E20E9466
S1130460DF0080E00E94DF000E94CF000E9449016B
S113047008951092C80088E98093C90086E08093AB
S1130480CA001092CD0087E68093CC000895909125
S1130490C80095FFFCCF8093CE0008950F931F935F
S11304A0CF938C01C0E003C00E944702CF5FF801E4
S11304B0EC0FF11D80818111F7CFCF911F910F9126
S11304C00895CF93DF93CDB7DEB728970FB6F8948E
S11304D0DEBF0FBECDBF4AE0BE016F5F7F4F0E94FB
S11304E0A306CE0101960E944E0228960FB6F894F8
S11304F0DEBF0FBECDBFDF91CF9108950E94610290
S113050008951F920F920FB60F9211242F933F93C9
S11305104F935F936F937F938F939F93AF93BF9307
S1130520EF93FF938091CE008093000180910001AE
S11305300E943904FF91EF91BF91AF919F918F91E8
S11305407F916F915F914F913F912F910F900FBECB
S11305500F901F9018951F920F920FB60F921124AF
S11305608F939F93769B09C0809168019091690154
S1130570019690936901809368019F918F910F90E8
S11305800FBE0F901F9018951F920F920FB60F92E7
S113059011248F939F931C9B09C080916A019091B1
S11305A06B01019690936B0180936A019F918F91E7
S11305B00F900FBE0F901F90189560916A01709173
S11305C06B018091680190916901680F791F80E047
S11305D090E00E94A8056093640170936501809384
S11305E06601909367016091640170916501809147
S11305F066019091670124E13EE846E954E40E94D3
S113060000052FE039E044E451E40E94360660938B
S11306106001709361018093620190936301089576
S11306200E94B0002FEF83ED90E321508040904072
S1130630E1F700C000000E94B40008951F93CF9317
S1130640DF9389E091E00E944E02809100010E94B4
S1130650470285E191E00E944E0288E191E00E9408
S11306604E0280916A0190916B010E94610284E2C2
S113067091E00E944E0287E291E00E944E02809136
S11306806801909169010E94610284E291E00E94F4
S11306904E0284E391E00E944E02609160017091E9
S11306A0610180916201909163010E947205CB0106
S11306B00E94610285E191E00E944E028FE391E085
S11306C00E944E0288E20E94E7000E94F500182F63
S11306D089E20E94E7000E940301C82FD0E0DC2FCA
S11306E0CC27C12B8091700190917101C81BD90B4B
S11306F08DE491E00E944E02CE010E947E028FE4BE
S113070091E00E944E028AE20E94E7000E941101D9
S1130710182F8BE20E94E7000E941F01C82FD0E02F
S1130720DC2FCC27C12B80916E0190916F01C81BE7
S1130730D90B81E591E00E944E02CE010E947E0217
S11307408FE491E00E944E028CE20E94E7000E9436
S11307502D01182F8DE20E94E7000E943B01C82F53
S1130760D0E0DC2FCC27C12B80916C0190916D01DE
S1130770C81BD90B85E591E00E944E02CE010E9470
S11307807E0284E291E00E944E0284E291E00E94A3
S11307904E02DF91CF911F9108950E9439020E9469
S11307A0DF030E948F000E94B8000E940F02789419
S11307B00E94DD020E9410030E941E03F9CF80EA0A
S11307C08093800081E18093810080E991E090939F
S11307D087008093860010928900109288001092FE
S11307E08B0010928A0084B1866684B980910501D9
S11307F0909106019093730180937201089520E60D
S113080025B9909389008093880090938B008093FE
S11308108A00089520E425B990938B0080938A0080
S1130820089520E225B99093890080938800089563
S113083026E625B9909389008093880090938B00D5
S113084080938A00089520E625B9909389008093C7
S1130850880070938B0060938A00089526E625B97A
S1130860909389008093880070938B0060938A0032
S11308700895E82F823391F018F4813331F028C0C1
S11308808333A9F08433E1F023C080910701909170
S1130890080190937301809372011AC0809105013D
S11308A090910601909373018093720111C080911D
S11308B0030190910401909373018093720108C025
S11308C080910101909102019093730180937201D0
S11308D08E2F90E0FC01E156F109EA31F10508F0B0
S11308E070C0EA5AFF4F0C94FA04809172019091FF
S11308F073010E94FF030895809172019091730126
S11309000E941804089580917201909173010E94CD
S1130910110480917401909175010E940A04089554
S113092080917401909175010E941104809172016B
S1130930909173010E940A040895209172013091EC
S113094073018091720190917301B901332314F4FE
S11309506F5F7F4F759567950E942304089560919A
S113096072017091730180917201909173019923C6
S11309700CF40196959587950E942304089520917F
S11309807201309173018091720190917301B901E8
S1130990332314F46F5F7F4F759567950E942E047F
S11309A00895609172017091730180917201909128
S11309B0730199230CF40196959587950E942E0452
S11309C0089580917401909175010E94FF038091B4
S11309D07401909175010E941804809174019091A2
S11309E075010E94110480917401909175010E9417
S11309F00A040895EE0FFF1F0590F491E02D099469
S1130A000E9414050C94FC050E94F50558F00E9400
S1130A10EE0540F029F45F3F29F00C94E5055111EF
S1130A200C9430060C94EB050E940D0668F3992390
S1130A30B1F3552391F3951B550BBB27AA276217D6
S1130A407307840738F09F5F5F4F220F331F441FE3
S1130A50AA1FA9F335D00E2E3AF0E0E832D0915017
S1130A605040E695001CCAF72BD0FE2F29D0660F04
S1130A70771F881FBB1F261737074807AB07B0E847
S1130A8009F0BB0B802DBF01FF2793585F4F3AF04D
S1130A909E3F510578F00C94E5050C9430065F3FB9
S1130AA0E4F3983ED4F3869577956795B795F795D3
S1130AB09F5FC9F7880F911D9695879597F90895BB
S1130AC0E1E0660F771F881FBB1F62177307840757
S1130AD0BA0720F0621B730B840BBA0BEE1F88F766
S1130AE0E09508950E9479056894B1110C9430063C
S1130AF008950E94150688F09F5798F0B92F9927FA
S1130B00B751B0F0E1F0660F771F881F991F1AF0F4
S1130B10BA95C9F714C0B13091F00E942F06B1E024
S1130B2008950C942F06672F782F8827B85F39F023
S1130B30B93FCCF3869577956795B395D9F73EF48D
S1130B4090958095709561957F4F8F4F9F4F089535
S1130B50E89409C097FB3EF4909580957095619553
S1130B607F4F8F4F9F4F9923A9F0F92F96E9BB2709
S1130B709395F695879577956795B795F111F8CF85
S1130B80FAF4BB0F11F460FF1BC06F5F7F4F8F4FF0
S1130B909F4F16C0882311F096E911C0772321F0E6
S1130BA09EE8872F762F05C0662371F096E8862F7E
S1130BB070E060E02AF09A95660F771F881FDAF7D5
S1130BC0880F9695879597F9089597F99F6780E818
S1130BD070E060E008959FEF80EC089500240A948B
S1130BE01616170618060906089500240A94121604
S1130BF01306140605060895092E0394000C11F437
S1130C00882352F0BB0F40F4BF2B11F460FF04C0E3
S1130C106F5F7F4F8F4F9F4F089557FD9058440F3C
S1130C20551F59F05F3F71F04795880F97FB991F47
S1130C3061F09F3F79F08795089512161306140604
S1130C40551FF2CF4695F1DF08C016161706180691
S1130C50991FF1CF86957105610508940895E8946C
S1130C60BB2766277727CB0197F908950E94490689
S1130C700C94FC050E94EE0538F00E94F50520F066
S1130C80952311F00C94E5050C94EB0511240C94B8
S1130C9030060E940D0670F3959FC1F3950F50E046
S1130CA0551F629FF001729FBB27F00DB11D639F1A
S1130CB0AA27F00DB11DAA1F649F6627B00DA11DC0
S1130CC0661F829F2227B00DA11D621F739FB00D66
S1130CD0A11D621F839FA00D611D221F749F3327D6
S1130CE0A00D611D231F849F600D211D822F762F6F
S1130CF06A2F11249F5750409AF0F1F088234AF04C
S1130D00EE0FFF1FBB1F661F771F881F91505040B7
S1130D10A9F79E3F510580F00C94E5050C9430062C
S1130D205F3FE4F3983ED4F3869577956795B7953E
S1130D30F795E7959F5FC1F7FE2B880F911D969558
S1130D40879597F90895BB274A3031F4992322F403
S1130D50BDE2909581959F4F0C94AF06BB27FB0194
S1130D605527AA27880F991FAA1FA41710F0A41BA0
S1130D7083955051B9F7A05DAA3308F0A95DA193FA
S1130D80009779F7B111B1931192CB010C94C80675
S1130D90DC01FC01672F71917723E1F7329704C0DE
S1130DA07C916D9370836291AE17BF07C8F3089569
S1070DB0F894FFCFE1
S1130DB42090012C01C8006400446972656374695D
S1130DC46F6E3A20000D0A007469636B734C656698
S1130DD4743A20000A0D007469636B73526967687E
S1130DE4743A200044697374616E63653A20005256
S1130DF469636874696E672069733A2000583A20FD
S10D0E0400593A20005A3A20000079
S9030000FC
